{
  "contractName": "Faucet",
  "abi": [
    {
      "anonymous": false,
      "inputs": [
        {
          "indexed": true,
          "internalType": "address",
          "name": "from",
          "type": "address"
        },
        {
          "indexed": false,
          "internalType": "uint256",
          "name": "amount",
          "type": "uint256"
        }
      ],
      "name": "Deposit",
      "type": "event"
    },
    {
      "anonymous": false,
      "inputs": [
        {
          "indexed": true,
          "internalType": "address",
          "name": "to",
          "type": "address"
        },
        {
          "indexed": false,
          "internalType": "uint256",
          "name": "amount",
          "type": "uint256"
        }
      ],
      "name": "Withdrawal",
      "type": "event"
    },
    {
      "payable": true,
      "stateMutability": "payable",
      "type": "fallback"
    },
    {
      "constant": false,
      "inputs": [
        {
          "internalType": "uint256",
          "name": "withdraw_amount",
          "type": "uint256"
        }
      ],
      "name": "withdraw",
      "outputs": [],
      "payable": false,
      "stateMutability": "nonpayable",
      "type": "function"
    }
  ],
  "bytecode": "0x608060405234801561001057600080fd5b50610297806100206000396000f3fe60806040526004361061001e5760003560e01c80632e1a7d4d1461006e575b3373ffffffffffffffffffffffffffffffffffffffff167fe1fffcc4923d04b559f4d29a8bfc6cda04eb5b0d3c460751c2402c5c5cc9109c346040518082815260200191505060405180910390a2005b34801561007a57600080fd5b506100a76004803603602081101561009157600080fd5b81019080803590602001909291905050506100a9565b005b67016345785d8a000081111561010a576040517f08c379a00000000000000000000000000000000000000000000000000000000081526004018080602001828103825260348152602001806101fc6034913960400191505060405180910390fd5b80471015610163576040517f08c379a00000000000000000000000000000000000000000000000000000000081526004018080602001828103825260338152602001806102306033913960400191505060405180910390fd5b3373ffffffffffffffffffffffffffffffffffffffff166108fc829081150290604051600060405180830381858888f193505050501580156101a9573d6000803e3d6000fd5b503373ffffffffffffffffffffffffffffffffffffffff167f7fcf532c15f0a6db0bd6d0e038bea71d30d808c7d98cb3bf7268a95bf5081b65826040518082815260200191505060405180910390a25056fe416d6f756e74206f66207472616e736665722073686f756c64206e6f74206265206d6f7265207468616e20302e312065746865724661756365743a20496e73756666696369656e742062616c616e636520666f72207769746864726177616c2072657175657374a265627a7a723158202ff07ab4f7cddf1295c6255694ec3cce79cc3960a9f620f447fcc522ed634fd064736f6c63430005100032",
  "source": "// SPDX-License-Identifer: MIT\r\npragma solidity >0.5.0 <0.6.0;\r\n\r\n\r\ncontract Faucet {\r\n    event Withdrawal(address indexed to, uint256 amount);\r\n    event Deposit(address indexed from, uint256 amount);\r\n\r\n    // give out ether to anyone who asks\r\n    function withdraw(uint256 withdraw_amount) public {\r\n        // check for sufficient funds\r\n        require(\r\n            withdraw_amount <= 100000000000000000,\r\n            \"Amount of transfer should not be more than 0.1 ether\"\r\n        );\r\n        require(\r\n            address(this).balance >= withdraw_amount,\r\n            \"Faucet: Insufficient balance for withdrawal request\"\r\n        );\r\n        msg.sender.transfer(withdraw_amount);\r\n        emit Withdrawal(msg.sender, withdraw_amount);\r\n    }\r\n\r\n    function() external payable {\r\n        emit Deposit(msg.sender, msg.value);\r\n    }\r\n}\r\n",
  "sourcePath": "C:\\Users\\majid\\Desktop\\projects\\solidity-faucet-\\contracts\\Faucet.sol",
  "compiler": {
    "name": "solc",
    "version": "0.5.16+commit.9c3226ce.Emscripten.clang"
  },
  "schemaVersion": "3.2.0",
  "updatedAt": "2020-05-30T16:13:43.168Z",
  "devdoc": {
    "methods": {}
  },
  "userdoc": {
    "methods": {}
  }
}